{"abi":[{"type":"constructor","inputs":[],"stateMutability":"nonpayable"},{"type":"receive","stateMutability":"payable"},{"type":"function","name":"owner","inputs":[],"outputs":[{"name":"","type":"address","internalType":"address payable"}],"stateMutability":"view"},{"type":"function","name":"withdraw","inputs":[{"name":"amount","type":"uint256","internalType":"uint256"}],"outputs":[],"stateMutability":"nonpayable"}],"bytecode":{"object":"0x608060405234801561000f575f80fd5b505f80546001600160a01b0319163317905561010b8061002e5f395ff3fe6080604052600436106028575f3560e01c80632e1a7d4d1460325780638da5cb5b14604e575f80fd5b36602e57005b5f80fd5b348015603c575f80fd5b50604c604836600460bf565b6086565b005b3480156058575f80fd5b505f54606a906001600160a01b031681565b6040516001600160a01b03909116815260200160405180910390f35b5f80546040516001600160a01b039091169183156108fc02918491818181858888f1935050505015801560bb573d5f803e3d5ffd5b5050565b5f6020828403121560ce575f80fd5b503591905056fea2646970667358221220345ea627a24af9cbb2bf3a56f62add96151c99e5a5e0af8462e83b821240610564736f6c63430008180033","linkReferences":{}},"methodIdentifiers":{"owner()":"8da5cb5b","withdraw(uint256)":"2e1a7d4d"},"id":35}