{"abi":[{"type":"constructor","inputs":[{"name":"gabai1","type":"address","internalType":"address"},{"name":"gabai2","type":"address","internalType":"address"},{"name":"gabai3","type":"address","internalType":"address"}],"stateMutability":"nonpayable"},{"type":"receive","stateMutability":"payable"},{"type":"function","name":"changeOwner","inputs":[{"name":"oldAddress","type":"address","internalType":"address"},{"name":"newAddress","type":"address","internalType":"address"}],"outputs":[],"stateMutability":"nonpayable"},{"type":"function","name":"gabaim","inputs":[{"name":"","type":"address","internalType":"address"}],"outputs":[{"name":"","type":"bool","internalType":"bool"}],"stateMutability":"view"},{"type":"function","name":"getBalance","inputs":[],"outputs":[{"name":"","type":"uint256","internalType":"uint256"}],"stateMutability":"view"},{"type":"function","name":"owner","inputs":[],"outputs":[{"name":"","type":"address","internalType":"address payable"}],"stateMutability":"view"},{"type":"function","name":"withdraw","inputs":[{"name":"amount","type":"uint256","internalType":"uint256"}],"outputs":[],"stateMutability":"nonpayable"}],"bytecode":{"object":"0x608060405234801561000f575f80fd5b506040516105c83803806105c883398101604081905261002e91610123565b5f80546001600160a01b0319163390811790915561004b90610099565b6001600160a01b039283165f908152600160208190526040808320805460ff199081168417909155948616835280832080548616831790559290941681522080549091169091179055610163565b6040516001600160a01b03821660248201526100e59060440160408051601f198184030181529190526020810180516001600160e01b0390811663161765e160e11b179091526100e816565b50565b80516a636f6e736f6c652e6c6f67602083015f808483855afa5050505050565b80516001600160a01b038116811461011e575f80fd5b919050565b5f805f60608486031215610135575f80fd5b61013e84610108565b925061014c60208501610108565b915061015a60408501610108565b90509250925092565b610458806101705f395ff3fe60806040526004361061004c575f3560e01c806312065fe0146100575780632e1a7d4d146100765780638da5cb5b14610097578063ca5b5b28146100cd578063f00d4b5d1461010b575f80fd5b3661005357005b5f80fd5b348015610062575f80fd5b506040514781526020015b60405180910390f35b348015610081575f80fd5b5061009561009036600461039f565b61012a565b005b3480156100a2575f80fd5b505f546100b5906001600160a01b031681565b6040516001600160a01b03909116815260200161006d565b3480156100d8575f80fd5b506100fb6100e73660046103d1565b60016020525f908152604090205460ff1681565b604051901515815260200161006d565b348015610116575f80fd5b506100956101253660046103f1565b610247565b5f546001600160a01b03163314806101565750335f9081526001602081905260409091205460ff161515145b6101b55760405162461bcd60e51b815260206004820152602560248201527f77616c6c6574206973206e6f74206f776e6572206f7220616e20616c6c6f772060448201526403ab9b2b9160dd1b60648201526084015b60405180910390fd5b478111156102195760405162461bcd60e51b815260206004820152602b60248201527f596f7520646f6e2774206861766520656e6f756768206d6f6e657920696e207960448201526a1bdd5c881858d8dbdd5b9d60aa1b60648201526084016101ac565b604051339082156108fc029083905f818181858888f19350505050158015610243573d5f803e3d5ffd5b5050565b5f546001600160a01b031633146102a05760405162461bcd60e51b815260206004820152601c60248201527f6f6e6c79206f776e65722063616e206368616e67652067616261696d0000000060448201526064016101ac565b6001600160a01b0382165f9081526001602081905260409091205460ff161515146103065760405162461bcd60e51b81526020600482015260166024820152756e6f742065786973742074686973206164647265737360501b60448201526064016101ac565b6001600160a01b0381165f9081526001602052604090205460ff16156103645760405162461bcd60e51b81526020600482015260136024820152722065786973742074686973206164647265737360681b60448201526064016101ac565b6001600160a01b039182165f908152600160208190526040808320805460ff1990811690915593909416825292902080549091169091179055565b5f602082840312156103af575f80fd5b5035919050565b80356001600160a01b03811681146103cc575f80fd5b919050565b5f602082840312156103e1575f80fd5b6103ea826103b6565b9392505050565b5f8060408385031215610402575f80fd5b61040b836103b6565b9150610419602084016103b6565b9050925092905056fea2646970667358221220ca42d91b5201965fb16363bc8584b758641a59e44eed4b1a8b524b725019165e64736f6c63430008180033","linkReferences":{}},"methodIdentifiers":{"changeOwner(address,address)":"f00d4b5d","gabaim(address)":"ca5b5b28","getBalance()":"12065fe0","owner()":"8da5cb5b","withdraw(uint256)":"2e1a7d4d"},"id":33}