{"abi":[{"type":"constructor","inputs":[],"stateMutability":"nonpayable"},{"type":"receive","stateMutability":"payable"},{"type":"function","name":"getBalance","inputs":[],"outputs":[{"name":"","type":"uint256","internalType":"uint256"}],"stateMutability":"view"},{"type":"function","name":"owner","inputs":[],"outputs":[{"name":"","type":"address","internalType":"address payable"}],"stateMutability":"view"},{"type":"function","name":"owners","inputs":[{"name":"","type":"uint256","internalType":"uint256"}],"outputs":[{"name":"","type":"address","internalType":"address"}],"stateMutability":"view"},{"type":"function","name":"withdraw","inputs":[{"name":"amount","type":"uint256","internalType":"uint256"}],"outputs":[],"stateMutability":"nonpayable"}],"bytecode":{"object":"0x608060405234801561000f575f80fd5b505f80546001600160a01b0319163317905561028f8061002e5f395ff3fe608060405260043610610041575f3560e01c8063025e7c271461004c57806312065fe0146100885780632e1a7d4d146100a25780638da5cb5b146100c3575f80fd5b3661004857005b5f80fd5b348015610057575f80fd5b5061006b61006636600461022e565b6100e1565b6040516001600160a01b0390911681526020015b60405180910390f35b348015610093575f80fd5b5060405147815260200161007f565b3480156100ad575f80fd5b506100c16100bc36600461022e565b610109565b005b3480156100ce575f80fd5b505f5461006b906001600160a01b031681565b600181815481106100f0575f80fd5b5f918252602090912001546001600160a01b0316905081565b5f546001600160a01b0316331461015d5760405162461bcd60e51b81526020600482015260136024820152723bb0b63632ba1034b9903737ba1037bbb732b960691b60448201526064015b60405180910390fd5b5f805b6001548110156101b157336001600160a01b03166001828154811061018757610187610245565b5f918252602090912001546001600160a01b0316036101a957600191506101b1565b600101610160565b50806101ff5760405162461bcd60e51b815260206004820152601b60248201527f77616c6c6574206973206e6f742066726f6d20206f776e6572732000000000006044820152606401610154565b604051339083156108fc029084905f818181858888f19350505050158015610229573d5f803e3d5ffd5b505050565b5f6020828403121561023e575f80fd5b5035919050565b634e487b7160e01b5f52603260045260245ffdfea2646970667358221220a5b1c0550be2a42fe036a7873288b0b30dae4724d78c06380c89050904cb73a764736f6c63430008180033","linkReferences":{}},"methodIdentifiers":{"getBalance()":"12065fe0","owner()":"8da5cb5b","owners(uint256)":"025e7c27","withdraw(uint256)":"2e1a7d4d"},"id":34}